:100000000C9443010C946B010C946B010C94C50C83
:100010000C946B010C946B010C946B010C946B01B0
:100020000C946B010C946B010C946B010C946B01A0
:100030000C946B010C946B010C94C40C0C946B012C
:100040000C946B010C946B010C946B010C946B0180
:100050000C946B010C94150D0C946B010C946B01BA
:100060000C946B010C946B0109040404FF03FA0364
:10007000F503F003EB0377097C09810986095E0922
:100080006D09720902000200020002000200020073
:10009000020002000300030003000300030003004A
:1000A0000300030003000300030004000400040035
:1000B000040004000400040004000400050005001E
:1000C0000500050005000500060006000600060004
:1000D00006000600070007000700070007000800E9
:1000E00008000800080009000900090009000A00CA
:1000F0000A000A000B000B000B000C000C000C00A7
:100100000D000D000E000E000E000F000F0010007D
:10011000100011001100120012001300130014004F
:100120001500150016001700170018001900190017
:100130001A001B001C001D001D001E001F002000D7
:100140002100220023002400250027002800290088
:100150002A002C002D002E00300031003300340026
:100160003600370039003B003C003E0040004200B2
:100170004400460048004B004D004F005200540020
:10018000570059005C005F006200650068006B006A
:100190006E007100750078007C008000840088008B
:1001A0008C009000940099009D00A200A700AC0074
:1001B000B100B700BC00C200C800CE00D400DB0014
:1001C000E100000100010001000106010E0116011D
:1001D0001E0127013001390143014C015601610123
:1001E0006C01770182018E019A01A601B301C00161
:1001F000CE01DC01EA01F401F901F901F901F9018B
:10020000F4015C026F0282029502A902BE02D302CF
:10021000E902000317032F03480361037C039703DC
:10022000B203CF03E803E803E803E803E8030004AC
:10023000000400040004000400040004000400049E
:10024000000400040004000400040004000400048E
:100250000004000400080008000800080008000866
:10026000000800080008000800080008000800084E
:10027000000800080008000800080008000800083E
:1002800000100010550811241FBECFEFD8E0DEBFCC
:10029000CDBF11E0A0E0B1E0ECE4FFE102C00590C9
:1002A0000D92AC3DB107D9F722E0ACEDB1E001C051
:1002B0001D92AC35B207E1F711E0C3E4D1E004C010
:1002C0002197FE010E943D0EC234D107C9F70E945A
:1002D0008B090C94A40F0C940000E091E001F0E075
:1002E000EE0FFF1FE059FE4F80819181DC01ED91FF
:1002F000FC910280F381E02D0995E091E001F0E0AE
:10030000EE0FFF1FE059FE4F80819181DC01ED91DE
:10031000FC910480F581E02D09948091E00190E04A
:100320000196837099278093E001880F991FFC0143
:10033000E059FE4F80819181DC01ED91FC910480B8
:10034000F581E02D0994CF93DF93E091E001EE2356
:1003500001F1F0E0EE0FFF1FE059FE4F8081918127
:10036000DC01ED91FC910680F781E02D0995E0918B
:10037000E001F0E0EE0FFF1FE059FE4F8081918118
:10038000DC01ED91FC910480F581E02DDF91CF91AE
:100390000994E4EDF2E0C0E7D1E0899199910995E3
:1003A00021E0C837D20779F0E881F9810190F08126
:1003B000E02D0680F781E02D89919991099521E042
:1003C000C837D20789F71092E00191E040912502E9
:1003D000509126026091270270912802452B462BEE
:1003E000472B89F181E040912D0250912E026091BE
:1003F0002F0270913002452B462B472B11F1892B90
:100400004091290250912A0260912B0270912C0296
:100410005F706627772791E04F3F5F406105710568
:10042000A1F0892B9091E10190933D0280933F02CE
:1004300010923E02E5EDF2E081E591E0DF91CF918F
:10044000099480E0DCCF90E0CDCF90E0EACF0F932D
:100450001F938091DF01E82FF0E0F695E795F29584
:10046000E295EF70EF27FF70EF27EE0FFF1FEE0F03
:10047000FF1FE35DFD4F982F9F7141E050E002C0E8
:10048000440F551F9A95E2F7052E000C660B770B6B
:100490000081118122813381402351236223732300
:1004A00091E0452B462B472B09F490E0835F809326
:1004B0003D0290933F0288E280933E021F910F918C
:1004C00008956093DF0108952091E301E22FF0E0A9
:1004D000F695E795F295E295EF70EF27FF70EF271D
:1004E000EE0FFF1FEE0FFF1FEB5DFD4F322F3F7131
:1004F00081E090E002C0880F991F3A95E2F7092E3B
:10050000000CAA0BBB0B4081518162817381842353
:100510009523A623B72331E0892B8A2B8B2B09F453
:1005200030E020933D0230933F0284E180933E020D
:1005300008956093E30108952091E201E22FF0E035
:10054000F695E795F295E295EF70EF27FF70EF27AC
:10055000EE0FFF1FEE0FFF1FE75DFD4F322F3F71C4
:1005600081E090E002C0880F991F3A95E2F7092ECA
:10057000000CAA0BBB0B40815181628173818423E3
:100580009523A623B72331E0892B8A2B8B2B09F0E7
:1005900030E020933D0230933F028AE080933E0298
:1005A00008956093E2010895089591E04091250235
:1005B000509126026091270270912802452B462B0C
:1005C000472B09F490E081E040912D0250912E02DA
:1005D00060912F0270913002452B462B472B09F476
:1005E00080E0892B4091290250912A0260912B02D0
:1005F00070912C025F706627772791E04F3F5F4034
:100600006105710551F0892B9091E10190933D02B4
:1006100080933F0210923E02089590E0F4CF089537
:10062000FC01828190E001966CE070E00E94070E70
:100630008283E091E001E11101C00895682FF0E0AC
:10064000EE0FFF1FE059FE4F80819181DC01ED919B
:10065000FC910190F081E02D0995E091E001F0E03E
:10066000EE0FFF1FE059FE4F80819181DC01ED917B
:10067000FC910480F581E02D0994DC0112966C91C7
:10068000662341F06150FC016283E091E001E111D9
:1006900008C008956BE0FC016283E091E001EE2365
:1006A000C1F3F0E0EE0FFF1FE059FE4F8081918112
:1006B000DC01ED91FC910190F081E02D0995E09134
:1006C000E001F0E0EE0FFF1FE059FE4F80819181C5
:1006D000DC01ED91FC910480F581E02D0994DC01B1
:1006E00012966C91129770E06F5F7F4F6F70772753
:1006F00012966C93E091E001E11101C00895F0E0E1
:10070000EE0FFF1FE059FE4F80819181DC01ED91DA
:10071000FC910190F081E02D0995E091E001F0E07D
:10072000EE0FFF1FE059FE4F80819181DC01ED91BA
:10073000FC910480F581E02D0994DC0112966C9106
:10074000662341F06150FC016283E091E001E11118
:1007500008C008956FE0FC016283E091E001EE23A0
:10076000C1F3F0E0EE0FFF1FE059FE4F8081918151
:10077000DC01ED91FC910190F081E02D0995E09173
:10078000E001F0E0EE0FFF1FE059FE4F8081918104
:10079000DC01ED91FC910480F581E02D0994089530
:1007A0000895089508950895DC011496EC91149726
:1007B000EE2371F0E1501496EC938E2F90E0873089
:1007C000910508F00895FC01EC5CFF4F0C943D0E80
:1007D00026E0FC0124835B985C9A5D9A5E9A0895FA
:1007E0005B985C985D9A5E9808955B9A5C985D9AB8
:1007F0005E9808955B9A5C9A5D985E9A08955B98FE
:100800005C9A5D985E9A08955B9A5C985D985E9A92
:1008100008955B985C985D985E9A0895FC018481C8
:1008200090E0019667E070E00E94070E84838330B9
:1008300041F150F0853001F1A8F0863071F45B98F9
:100840005C9A5D9A5E9A0895813089F0823029F42D
:100850005B985C9A5D985E9A08955B985C985D9849
:100860005E9A08955B9A5C985D9A5E9808955B9A8B
:100870005C985D985E9A08955B985C985D9A5E9826
:1008800008955B9A5C9A5D985E9A08950F931F9302
:10089000CF93DF9300D0CDB7DEB7DC0186B182FB0A
:1008A000992790F981E0892716969C9116978917C8
:1008B00009F45FC015961C921E92149716968C939D
:1008C000169712968D919C9113978230910509F499
:1008D00046C0A8F4009709F472C0019771F5169606
:1008E0008C911697811183C084E090E013969C93BD
:1008F0008E9312971796ED91FC91189722C0833032
:10090000910569F10497C9F416968C911697811197
:1009100008C014968D919C911597893C910508F01B
:1009200041C016968C911697882339F014968D91B4
:100930009C911597892B09F071C01796ED91FC9148
:100940001897309729F08D010995F80110861782C4
:100950000F900F90DF91CF911F910F9108951696F0
:100960008C9116978111E9CF13961C921E921297C3
:10097000E4CF2EEF3FEF3A83298314962D913C91DB
:1009800015972E3F3F4F48F029813A812F5F3F4F07
:1009900015963C932E93149791CF14962D913C91DC
:1009A0001597F4CF13961C921E9212971996ED91FB
:1009B000FC911A971896FC93EE931797C2CF169650
:1009C0008C911697882309F4B8CF14968D919C9139
:1009D0001597892B09F4B1CF81E090E013969C9391
:1009E0008E9312971796ED91FC911897AACF1496B3
:1009F0008D919C911597893E934008F49ECF82E09B
:100A000090E013969C938E9312971D96ED91FC9116
:100A10001E971896FC93EE93179793CF83E090E080
:100A200013969C938E9312971B96ED91FC911C97B5
:100A30001896FC93EE93179784CF0895CF93DF9386
:100A4000FC0186818F5F86838A3068F016828581FB
:100A500090E0019624E630E0B9010E94070E8583FC
:100A60008381811103C0DF91CF910895C581638196
:100A7000D0E070E0C9010E94070ECE010E94070E6F
:100A8000892B89F7978181E089278783DF91CF912F
:100A9000089510922D0210922E0210922F021092A1
:100AA0003002F999FECF44E050E060E070E08DE262
:100AB00092E00E94CD0D80E190E09093320280930D
:100AC0003102F999FECF42E050E064E070E081E34A
:100AD00092E00C94CD0DCF92DF92EF92FF92CF93E4
:100AE000DF939091DF01C92FD0E0FE01F695E795E5
:100AF000F295E295EF70EF27FF70EF27EE0FFF1FE3
:100B0000EE0FFF1FE35DFD4FC080D180E280F380D8
:100B10009F7121E030E002C0220F331F9A95E2F767
:100B2000C901330FAA0BBB0BB701A60148235923F8
:100B30006A237B23452B462B472B79F58C299D294E
:100B4000AE29BF2980839183A283B383F999FECF15
:100B500044E050E060E070E08DE292E00E94CD0D54
:100B60008091310290913202C817D907A0F090937A
:100B7000320280933102F999FECF42E050E064E006
:100B800070E081E392E0DF91CF91FF90EF90DF90F2
:100B9000CF900C94CD0DCE01EACFAC01BD014095B4
:100BA000509560957095DB01CA018C219D21AE2185
:100BB000BF2180839183A283B383F999FECF44E060
:100BC00050E060E070E08DE292E00E94CD0D8091F7
:100BD000310290913202C817D90739F0DF91CF91D5
:100BE000FF90EF90DF90CF900895C031D10508F0CD
:100BF0008FC1AE014F5F5F4FC0902D02D0902E028B
:100C0000E0902F02F090300221E030E0C901042E84
:100C100002C0880F991F0A94E2F7092E000CAA0B54
:100C2000BB0B8C219D21AE21BF21892B8A2B8B2BC5
:100C300009F06DC14031510509F466C14F5F5F4F46
:100C4000C901042E02C0880F991F0A94E2F7092EE9
:100C5000000CAA0BBB0B8C219D21AE21BF21892B3F
:100C60008A2B8B2B09F053C14031510509F44CC13B
:100C70004F5F5F4FC901042E02C0880F991F0A946D
:100C8000E2F7092E000CAA0BBB0B8C219D21AE2193
:100C9000BF21892B8A2B8B2B09F039C1403151059B
:100CA00009F432C14F5F5F4FC901042E02C0880FA3
:100CB000991F0A94E2F7092E000CAA0BBB0B8C219A
:100CC0009D21AE21BF21892B8A2B8B2B09F01FC1BF
:100CD0004031510509F418C19E012B5F3F4F81E05F
:100CE00090E0AC01022E02C0440F551F0A94E2F7B7
:100CF000052E000C660B770B4C215D216E217F21A8
:100D0000452B462B472B09F00AC12031310509F448
:100D1000FBC02F5F3F4FAC01022E02C0440F551F96
:100D20000A94E2F7052E000C660B770B4C215D212F
:100D30006E217F21452B462B472B09F0F0C0203137
:100D4000310509F4E1C02F5F3F4FAC01022E02C014
:100D5000440F551F0A94E2F7052E000C660B770B23
:100D60004C215D216E217F21452B462B472B09F01D
:100D7000D6C02031310509F4C7C02F5F3F4FAC0109
:100D8000022E02C0440F551F0A94E2F7052E000CF4
:100D9000660B770B4C215D216E217F21452B462B65
:100DA000472B09F0BCC02031310509F4ADC02F5FDD
:100DB0003F4F022E02C0880F991F0A94E2F7092EB6
:100DC000000CAA0BBB0B8C219D21AE21BF21892BCE
:100DD0008A2B8B2B09F0A3C02031310509F494C074
:100DE0002F5F3F4F81E090E0AC01022E02C0440F24
:100DF000551F0A94E2F7052E000C660B770B4C2169
:100E00005D216E217F21452B462B472B09F087C0A2
:100E10002031310509F478C02F5F3F4FAC01022E1D
:100E200002C0440F551F0A94E2F7052E000C660B12
:100E3000770B4C215D216E217F21452B462B472BC3
:100E400009F06DC02031310509F45EC02F5F3F4FBE
:100E5000AC01022E02C0440F551F0A94E2F7052E82
:100E6000000C660B770B4C215D216E217F21452BF9
:100E7000462B472B09F053C02031310509F444C0FB
:100E80002F5F3F4FAC01022E02C0440F551F0A9442
:100E9000E2F7052E000C660B770B4C215D216E21CD
:100EA0007F21452B462B472BD1F52031310561F1B0
:100EB0002F5F3F4F022E02C0880F991F0A94E2F75E
:100EC000092E000CAA0BBB0B8C219D21AE21BF214A
:100ED000892B8A2B8B2B19F520313105A9F02F9600
:100EE00081E090E00C2E02C0880F991F0A94E2F76F
:100EF000092E000CAA0BBB0BC822D922EA22FB2226
:100F0000CD28CE28CF2821F4C0E1D0E001C0EA01ED
:100F1000D0933202C0933102F999FECF2ECEE9016F
:100F2000F7CF1092250210922602109227021092FB
:100F30002802F999FECF44E050E06AE070E085E2D3
:100F400092E00C94CD0D8FEF9FEFDC01809329028E
:100F500090932A02A0932B02B0932C02F999FECF12
:100F600044E050E066E070E089E292E00C94CD0D40
:100F70008091E301E82FF0E0F695E795F295E29590
:100F8000EF70EF27FF70EF27EE0FFF1FEE0FFF1F31
:100F9000EB5DFD4F282F2F7181E090E002C0880F9C
:100FA000991F2A95E2F7092E000CAA0BBB0B408172
:100FB00051816281738184279527A627B727808373
:100FC0009183A283B383F999FECF44E050E06AE0B5
:100FD00070E085E292E00C94EF0D8091E201E82F41
:100FE000F0E0F695E795F295E295EF70EF27FF7048
:100FF000EF27EE0FFF1FEE0FFF1FE75DFD4F282FBE
:101000002F7181E090E002C0880F991F2A95E2F7C6
:10101000092E000CAA0BBB0B4081518162817381A8
:1010200084279527A627B72780839183A283B3833C
:10103000F999FECF44E050E066E070E089E292E08A
:101040000C94EF0D0C941B0F0C941B0F02970C9437
:101050001B0F0C941B0F0C941B0F0C941B0FCF93A6
:10106000DF93FC0164812581261749F0F999FECFB1
:10107000EC018EE090E00E94F90D8C818D83DF9170
:10108000CF910895CF93DF93EC0122976C818D81EE
:10109000861741F0F999FECF8EE090E00E94F90D9D
:1010A0008C818D83DF91CF9108951092210224E0ED
:1010B000209322028FEF809323028093240251E039
:1010C00050931D0293E090931E0280931F02809321
:1010D000200232E03093190238E030931A028093F4
:1010E0001B0280931C0290931502E6E0E093160227
:1010F00080931702809318022093110265E0609399
:101100001202809313028093140220930D0249E08F
:1011100040930E0280930F028093100277E0709349
:10112000090240930A0280930B0280930C023093D1
:1011300005022AE0209306028093070280930802AA
:10114000E093010220930202809303028093040241
:101150009093FD019BE09093FE018093FF018093AB
:1011600000027093F9019093FA018093FB01809340
:10117000FC013093F5019093F6018093F701809381
:10118000F8014093F1019093F2018093F301809371
:10119000F4012093ED019093EE018093EF01809391
:1011A000F0016093E9013093EA018093EB018093B1
:1011B000EC015093E5012093E6018093E7018093D1
:1011C000E80110922D0210922E0210922F0210921E
:1011D0003002F999FECF44E050E060E070E08DE22B
:1011E00092E00E94B50DF999FECF42E050E064E034
:1011F00070E081E392E00E94B50D109229021092F6
:101200002A0210922B0210922C02F999FECF44E090
:1012100050E066E070E089E292E00E94B50D109225
:101220002502109226021092270210922802F999A4
:10123000FECF44E050E06AE070E085E292E00E9478
:10124000B50D86EA91E09093440280934302109298
:101250004B0210924A028DE691E090934D028093EA
:101260004C028DE891E090934F0280934E0283EA06
:1012700091E0909351028093500280EB91E0909323
:101280005302809352028EEB91E09093550280932B
:1012900054021092560210925702F999FECF8EE036
:1012A00090E00E94C50D8093560290E08730910532
:1012B00048F4FC01E55CFF4F0C943D0E5B9A5C9892
:1012C0005D9A5E988CE991E090933C0280933B029A
:1012D000109234021092330208955B985C985D9AE4
:1012E0005E98F0CF5B985C9A5D9A5E9AEBCF5B98C4
:1012F0005C985D985E9AE6CF5B9A5C985D985E9A82
:10130000E1CF5B985C9A5D985E9ADCCF5B9A5C9AC1
:101310005D985E9AD7CF539A549A559A20982198FF
:101320003A98569A84B1886284B9579A229A529A06
:101330005F9A2A9A5A9A8CB580658CBD8CB58E7F3F
:101340008CBD8CB58D7F8CBD8DB581608DBD809140
:101350007C00806480937C0080917C00806280931C
:101360007C0080917C00887F80937C0080917A0053
:10137000876080937A0080917A00806280937A00FF
:1013800080917B00836080937B0080917A008068ED
:1013900080937A0080917A00886080937A008091AF
:1013A0007A00806480937A0084B5826084BD85B5BC
:1013B0008D7F85BD85B5856085BD8FE087BD8091BA
:1013C0006E00826080936E0080918100897F80939F
:1013D00081008091810081608093810085E395E0A8
:1013E00090938B0080938A00809168008160809345
:1013F000680080916B00816080936B0078945F98A7
:1014000080E38EBD0DB407FEFDCF8EB51EBC0DB4BE
:1014100007FEFDCF8EB55F9A809133029091340222
:1014200001969093340280933302880F991FFC0138
:10143000ED5CFD4F8BE392E09183808380913302DA
:101440009091340201969093340280933302880F76
:10145000991FFC01ED5CFD4F83E492E09183808352
:1014600080913302909134020196909334028093DC
:101470003302880F991FFC01ED5CFD4F84E592E07B
:1014800091838083C1E0D0E0812C60E1962EA12C75
:10149000B12C80913E02882309F465C280914202FA
:1014A000882309F460C28FEF8EBD0DB407FEFDCF17
:1014B0009EB58EBD0DB407FEFDCF8EB55A985A9AD3
:1014C0008091E4013CE0381B3093E101E091E001C0
:1014D000F0E0EE0FFF1FE059FE4F80819181DC01AB
:1014E000ED91FC910480F581E02D09952A981EBCB0
:1014F0000DB407FEFDCF2EB51EBC0DB407FEFDCF0B
:101500008EB52A9A2F71869590E0B0E82B9F800DBA
:10151000911D1124A0912902B0912A028A239B23B4
:10152000A0912502B0912602A827B9274091310247
:1015300050913202C0902D02D0902E02E0902F02E6
:10154000F09030024031510509F4CCC1FA01EE0FA0
:10155000FF1FE858FE4F0190F081E02D808187FD4C
:1015600036C008C02A2F8B2FA22FB82F3296808129
:1015700087FD2DC09E0102C0220F331F8A95E2F71E
:10158000CE01018002C0880F991F0A94E2F7BD01C5
:10159000682379238D01082B192B809590958A2338
:1015A0009B23A223B323AB2B09F0C801D901A82B9D
:1015B000B92B2095309582239323672B99F6282FFA
:1015C000892FA22FB82F3296808187FFD3CF403149
:1015D000510508F0B7CF9A012F5F3F4FCE01022E81
:1015E00002C0880F991F0A94E2F72C01990F660830
:1015F00077084C205D206E207F204528462847280C
:1016000009F0C0C12031310509F466C12F5F3F4F99
:10161000CE01022E02C0880F991F0A94E2F72C0116
:10162000990F660877084C205D206E207F204528A2
:101630004628472809F0A6C12031310509F44CC1DC
:101640002F5F3F4FCE01022E02C0880F991F0A94D0
:10165000E2F72C01990F660877084C205D206E2078
:101660007F2045284628472809F08CC120313105C4
:1016700009F432C12F5F3F4FCE01022E02C0880F06
:10168000991F0A94E2F72C01990F660877084C20FD
:101690005D206E207F2045284628472809F072C12A
:1016A0002031310509F418C12F5F3F4FCE01022EC2
:1016B00002C0880F991F0A94E2F72C01990F66085F
:1016C00077084C205D206E207F204528462847283B
:1016D00009F058C12031310509F4FEC02F5F3F4F9A
:1016E000CE01022E02C0880F991F0A94E2F72C0146
:1016F000990F660877084C205D206E207F204528D2
:101700004628472809F03EC12031310509F4E4C0DC
:101710002F5F3F4FCE01022E02C0880F991F0A94FF
:10172000E2F72C01990F660877084C205D206E20A7
:101730007F2045284628472809F024C1203131055B
:1017400009F4CAC02F5F3F4FCE01022E02C0880F9E
:10175000991F0A94E2F72C01990F660877084C202C
:101760005D206E207F2045284628472809F00AC1C1
:101770002031310509F4B0C02F5F3F4FCE01022E5A
:1017800002C0880F991F0A94E2F72C01990F66088E
:1017900077084C205D206E207F204528462847286A
:1017A00009F0F0C02031310509F496C02F5F3F4F9A
:1017B000CE01022E02C0880F991F0A94E2F72C0175
:1017C000990F660877084C205D206E207F20452801
:1017D0004628472809F0D6C02031310509F47CC0DD
:1017E0002F5F3F4FCE01022E02C0880F991F0A942F
:1017F000E2F72C01990F660877084C205D206E20D7
:101800007F2045284628472809F0BCC020313105F3
:1018100009F462C02F5F3F4FCE01022E02C0880F35
:10182000991F0A94E2F72C01990F660877084C205B
:101830005D206E207F2045284628472809F0A2C059
:101840002031310509F448C02F5F3F4FCE01022EF1
:1018500002C0880F991F0A94E2F72C01990F6608BD
:1018600077084C205D206E207F2045284628472899
:1018700009F088C02031310579F12F5F3F4FCE014B
:10188000022E02C0880F991F0A94E2F72C01990FCB
:10189000660877084C205D206E207F20452846286A
:1018A000472809F06FC020313105B1F0415F5F4F2B
:1018B0008E01042E02C0000F111F0A94E2F7012EC0
:1018C000000C220B330B0C211D212E213F21012B5B
:1018D000022B032B09F036CE40E150E04031510598
:1018E00009F034CEC0900601D0900701E0900801C5
:1018F000F090090120910601309107014091080103
:10190000509109010E94640E1B012C018CE0569439
:101910004794379427948A95D1F7C501B401A7015C
:1019200096010E941B0E229EC001239E900D329EA6
:10193000900D11249F7390635F989EBD0DB407FEB8
:10194000FDCF9EB58EBD0DB407FEFDCF8EB55F9A5F
:10195000B29BFECF1092850010928400B29A8091C3
:101960003E0281119BCD80913F02E0913D0287951F
:1019700088278795982F9095F0E0ED5AFE4F80814B
:10198000892392CDA901DECD18951F920F920FB633
:101990000F9211242F933F934F935F936F937F93F5
:1019A0008F939F93AF93BF93EF93FF938091DE014B
:1019B0008F5F8093DE018823B1F0189914C01092D4
:1019C000DE01199921C0E091E001F0E0EE0FFF1F68
:1019D000E75BFE4F80819181DC01ED91FC910480F9
:1019E000F581E02D0995FF91EF91BF91AF919F9106
:1019F0008F917F916F915F914F913F912F910F90B8
:101A00000FBE0F901F901895E091E001F0E0EE0FEF
:101A1000FF1FE75BFE4F80819181DC01ED91FC911E
:101A20000680F781E02D0995DECF1F920F920FB649
:101A30000F921124EF92FF921F932F933F934F9396
:101A40005F936F937F938F939F93AF93BF93CF9346
:101A5000DF93EF93FF9320917900122F1095C5E348
:101A6000D2E04BE3E42E42E0F42E88819981009786
:101A700039F0DC01ED91FC910480F581E02D0995B0
:101A80002296EC16FD0689F78091DD01882309F482
:101A900049C0813011F19091DC0180917C00887FF8
:101AA000892B80937C008091DC018093DD01FF9184
:101AB000EF91DF91CF91BF91AF919F918F917F91E6
:101AC0006F915F914F913F912F911F91FF90EF90F8
:101AD0000F900FBE0F901F901895EFEFF0E0E11BF5
:101AE000F109EE0FFF1FEC57FF4F85919491A0E095
:101AF000B0E08093060190930701A0930801B09392
:101B000009018091060190910701A0910801B0910F
:101B100009010E94430E83508093E4011092DC017E
:101B200090E0BBCF212F30E0A0E9BEE20E94550E2D
:101B3000BB27A92F982F872F40EE5EE260E070E070
:101B40009A01AB01281B390B4A0B5B0B60E074E276
:101B500084EF90E00E941B0E30938B0020938A004C
:101B600081E08093DC0191E098CFDC01CB01FC01A6
:101B7000F999FECF06C0F2BDE1BDF89A319600B4E6
:101B80000D9241505040B8F70895F999FECF92BD9B
:101B900081BDF89A992780B50895DC01A40FB51F7F
:101BA0004150504048F0CB01840F951F2E910E9468
:101BB000DE0D41505040D0F70895262FF999FECF01
:101BC00092BD81BDF89A019700B4021639F01FBA90
:101BD00020BD0FB6F894FA9AF99A0FBE0895DC0169
:101BE000CB0103C02D910E94FA0D41505040D0F717
:101BF0000895262FF999FECF1FBA92BD81BD20BD51
:101C00000FB6F894FA9AF99A0FBE0196089597FBC9
:101C1000072E16F4009407D077FD09D00E946F0EAE
:101C200007FC05D03EF4909581959F4F08957095DF
:101C300061957F4F0895A1E21A2EAA1BBB1BFD01DF
:101C40000DC0AA1FBB1FEE1FFF1FA217B307E4079B
:101C5000F50720F0A21BB30BE40BF50B661F771FF3
:101C6000881F991F1A9469F76095709580959095D3
:101C70009B01AC01BD01CF010895EE0FFF1F059040
:101C8000F491E02D0994AA27992329F4A85F982BB1
:101C900011F480E10895903118F4AD5F9295A39509
:101CA000990FE8F78A2F99270895A29FB001B39F53
:101CB000C001A39F700D811D1124911DB29F700D55
:101CC000811D1124911D08950E94550EA59F900D10
:101CD000B49F900DA49F800D911D11240895AA1BFF
:101CE000BB1B51E107C0AA1FBB1FA617B70710F007
:101CF000A61BB70B881F991F5A95A9F78095909539
:101D0000BC01CD0108950F931F93CF93DF938230D1
:101D1000910510F482E090E0E0915A02F0915B02AC
:101D200020E030E0A0E0B0E0309719F1408151812F
:101D30000281138148175907C8F08417950769F481
:101D4000109731F012960C93129713961C9327C09C
:101D500000935A0210935B0222C02115310519F03D
:101D60004217530718F49A01BD01EF01DF01F80192
:101D7000DBCF21153105F9F0281B390B2430310553
:101D800080F48A819B816115710521F0FB019383A9
:101D9000828304C090935B0280935A02FE013296C4
:101DA00044C0FE01E20FF31F819391932250310949
:101DB000398328833AC02091580230915902232B4D
:101DC00041F4209102013091030130935902209394
:101DD000580220910001309101012115310541F493
:101DE0002DB73EB74091040150910501241B350BDE
:101DF000E0915802F0915902E217F307A0F42E1B6C
:101E00003F0B2817390778F0AC014E5F5F4F24175E
:101E1000350748F04E0F5F1F509359024093580208
:101E20008193919302C0E0E0F0E0CF01DF91CF9188
:101E30001F910F910895CF93DF93009709F481C00C
:101E4000FC01329713821282A0915A02B0915B0278
:101E5000109781F420813181820F931F20915802C5
:101E6000309159022817390751F5F0935902E09340
:101E7000580267C0ED0120E030E0CE17DF0740F4E4
:101E80004A815B819E0141155105F1F0EA01F5CFD0
:101E9000D383C28340815181840F951FC817D9070E
:101EA00059F488819981840F951F029691838083CC
:101EB0008A819B81938382832115310529F4F093D4
:101EC0005B02E0935A023DC0E901FB83EA8349913A
:101ED0005991C40FD51FEC17FD0761F480819181E2
:101EE000840F951F0296E9019983888382819381EB
:101EF0009B838A83E0E0F0E012968D919C9113978A
:101F0000009719F0FD01DC01F7CF8D919C9111979D
:101F10009D012E5F3F4F820F931F209158023091F9
:101F200059022817390769F4309729F410925B0297
:101F300010925A0202C013821282B0935902A093E7
:0C1F40005802DF91CF910895F894FFCF74
:101F4C0000005C02200000100000C80100C8010065
:101F5C00D401000000000061026B05270249050056
:101F6C000000009902B8076402910700000000D13C
:101F7C0002ED079C02A307000000000F03D402D55A
:101F8C0002D402170123012F0152020A010D011084
:101F9C00013B01C0F9A4B0999282F880908883C665
:101FAC00FEFDFBF7EFDFF6EDDBB6A2A39DAB9CAA23
:101FBC00510147014501430121021D02190215027D
:101FCC0011020D02090205020102FD01F901F501E0
:101FDC00F101ED01E901E501000000001D052208F9
:101FEC001E0500000000CF0324084604000000007A
:101FFC00D1032908D4030E042F08FEFF0000D003E0
:10200C002608420800000000D2032B083D031003F1
:0C201C0000000000D3032D089D036F039B
:00000001FF
