:100000000C94C9010C94F1010C94F1010C940105BC
:100010000C94F1010C94F1010C94F1010C94F10198
:100020000C94F1010C94F1010C94F1010C94F10188
:100030000C94F1010C94F1010C94140C0C94F1014A
:100040000C94F1010C94F1010C94F1010C94F10168
:100050000C94F1010C9437040C94F1010C94F1010F
:100060000C94F1010C94F10132042D0428042304B2
:100070001E0419041404E804ED04F204F704FC045B
:10008000E304DE040200020002000200020002009B
:10009000020002000300030003000300030003004A
:1000A0000300030003000300030004000400040035
:1000B000040004000400040004000400050005001E
:1000C0000500050005000500060006000600060004
:1000D00006000600070007000700070007000800E9
:1000E00008000800080009000900090009000A00CA
:1000F0000A000A000B000B000B000C000C000C00A7
:100100000D000D000E000E000E000F000F0010007D
:10011000100011001100120012001300130014004F
:100120001500150016001700170018001900190017
:100130001A001B001C001D001D001E001F002000D7
:100140002100220023002400250027002800290088
:100150002A002C002D002E00300031003300340026
:100160003600370039003B003C003E0040004200B2
:100170004400460048004B004D004F005200540020
:10018000570059005C005F006200650068006B006A
:100190006E007100750078007C008000840088008B
:1001A0008C009000940099009D00A200A700AC0074
:1001B000B100B700BC00C200C800CE00D400DB0014
:1001C000E100000100010001000106010E0116011D
:1001D0001E0127013001390143014C015601610123
:1001E0006C01770182018E019A01A601B301C00161
:1001F000CE01DC01EA01F401F901F901F901F9018B
:10020000F4015C026F0282029502A902BE02D302CF
:10021000E902000317032F03480361037C039703DC
:10022000B203CF03E803E803E803E803E8030004AC
:10023000000400040004000400040004000400049E
:10024000000400040004000400040004000400048E
:100250000004000400080008000800080008000866
:10026000000800080008000800080008000800084E
:10027000000800080008000800080008000800083E
:10028000001000100003070B0E1215181B1E21246E
:1002900027292C2F313436383B3D3F414446484ACC
:1002A0004C4E5051535557595A5C5E5F61636466BA
:1002B00067696A6C6D6F707273747677787A7B7C1D
:1002C0007E7F80818384858687888A8B8C8D8E8FC4
:1002D000909192939495969798999A9B9C9D9E9FA6
:1002E000A0A1A2A3A4A4A5A6A7A8A9AAABABACADA4
:1002F000AEAFAFB0B1B2B3B3B4B5B6B6B7B8B9B9C3
:10030000BABBBCBCBDBEBEBFC0C1C1C2C3C3C4C5F5
:10031000C5C6C7C7C8C9C9CACACBCCCCCDCECECF3B
:10032000CFD0D1D1D2D2D3D3D4D5D5D6D6D7D7D892
:10033000D9D9DADADBDBDCDCDDDDDEDFDFE0E0E1F2
:10034000E1E2E2E3E3E4E4E5E5E6E6E7E7E8E8E95D
:10035000E9EAEAEAEBEBECECEDEDEEEEEFEFF0F0D4
:10036000F0F1F1F2F2F3F3F4F4F4F5F5F6F6F7F751
:10037000F7F8F8F9F9F9FAFAFBFBFCFCFCFDFDFED5
:10038000FEFEFFFFF601880271055E08870B8F02F3
:10039000A90511241FBECFEFD8E0DEBFCDBF11E00D
:1003A000A0E0B1E0E6EAFEE102C005900D92A23FB6
:1003B000B107D9F722E0A2EFB1E001C01D92A23748
:1003C000B207E1F713E0CEE8D3E004C02297FE01C4
:1003D0000E94890DC438D107C9F70E94150C0C94EE
:1003E000460F0C940000FFCF0C94650E1092F301A1
:1003F0001092F201089524E331E0FC01318320835F
:10040000089524E331E0FC0131832083089524E33F
:1004100031E0FC01318320830C94F40124E331E0CA
:10042000FC01318320830C94F401CF93DF93FC0112
:1004300086818F5F86838A30E8F01682858190E01E
:10044000019624E630E0B9010E94510D8583838135
:10045000882381F0C5816381D0E070E0C9010E94EA
:10046000510DCE010E94510D892B21F4878191E01D
:1004700089278783DF91CF910895E2EFF1E08081B2
:100480009181019691838083FC01EE0FFF1FEE5056
:10049000FE4F8AEF91E09183808308958091FD0162
:1004A000882321F08091010281110FC08091FE010B
:1004B000E091FC018795882787958095F0E0ED5EB7
:1004C000FE4F908189230C94440D8FEF0C94440DC2
:1004D0008093FC016093FE011092FD0108958093CA
:1004E000FC016093FE018AE08093FD0108958093F2
:1004F000FC016093FE0184E18093FD010895835F18
:100500008093FC016093FE0188E28093FD010895D1
:100510008EE391E09093FB018093FA01089584E3C8
:1005200091E09093FB018093FA010895CF93DF93BC
:10053000EC0126B122FB222720F981E028278E81B9
:10054000281709F447C080E090E09D838C832E83B8
:100550008A819B8182309105A9F1B4F4009709F456
:1005600046C0019739F48E81811151C084E090E03A
:100570009B838A83EF81F885309719F00995188657
:100580001F82DF91CF91089583309105D9F00497B0
:1005900089F78E81811106C08C819D81893C9105EE
:1005A00008F044C08E81882329F38C819D81892B9A
:1005B00009F383E090E09B838A83EB85FC85F887D1
:1005C000EF83DACF8E818111D5CF1B821A82EF8122
:1005D000F885D2CF8C819D818E3F9F4F20F48C81F6
:1005E0009D810196B2CF8EEF9FEF0196AECF8E81A7
:1005F000882309F4BFCF8C819D81892B09F4BACF60
:1006000081E090E09B838A83EF81F885B5CF8C8170
:100610009D81893E934008F4ADCF82E090E09B83BA
:100620008A83ED85FE85F887EF83A6CF1B821A8229
:10063000E985FA85F887EF839FCF22E531E0FC0159
:1006400031832083089522E531E0FC01318320834A
:10065000089522E531E0FC0131832083089524E3ED
:1006600031E0FC013383228322E531E031832083B2
:10067000089524E331E0FC0131832083089522E5CD
:1006800031E0FC01318320830C94F40122E531E058
:10069000FC01318320830C94F40122E531E0FC015C
:1006A000318320830C94F40124E331E0FC01338393
:1006B000228322E531E0318320830C94F4010297F8
:1006C0000C94540324E331E0FC01318320830C9427
:1006D000F401CF93DF93EC016C818D81861741F09B
:1006E000F999FECF8CE090E00E94380F8C818D83C9
:1006F000DF91CF91089502970C946903FC018281E8
:10070000882321F0815082830C9425078FE0828317
:100710000C942507FC01228130E02F5F3F4F2F70A2
:1007200033272283822F0C942507FC0182818823A2
:1007300021F0815082830C9425078BE082830C94F6
:100740002507FC01828190E001966CE070E00E9438
:10075000510D82830C94250782E591E09093070167
:100760008093060190930A018093090190930D01F3
:1007700080930C0124E331E03093080220930702B8
:10078000909306028093050230930C0220930B0293
:100790000895FC01848190E0019667E070E00E947A
:1007A000510D8483833041F150F0853001F1A8F080
:1007B000863071F45B985C9A5D9A5E9A08958130F8
:1007C00089F0823029F45B985C9A5D985E9A08956E
:1007D0005B985C985D985E9A08955B9A5C985D9AC8
:1007E0005E9808955B9A5C985D985E9A08955B9810
:1007F0005C985D9A5E9808955B9A5C9A5D985E9AA3
:100800000895FC019481992369F08FEF890F848307
:1008100090E08730910508F00895FC01EC5CFF4FF3
:100820000C94870D86E084835B985C9A5D9A5E9A4F
:1008300008955B985C985D9A5E9808955B9A5C98C1
:100840005D9A5E9808955B9A5C9A5D985E9A0895A9
:100850005B985C9A5D985E9A08955B9A5C985D9847
:100860005E9A08955B985C985D985E9A08951F92D1
:100870000F920FB60F9211241F932F933F934F9314
:100880005F936F937F938F939F93AF93BF93CF9318
:10089000DF93EF93FF93109179001095C4EFD1E0AF
:1008A00088819981009741F0FC01A081B181149663
:1008B000ED91FC91159709952296F1E0CA3FDF076B
:1008C00079F780910402882309F447C0813001F14F
:1008D0009091030280917C00887F892B80937C001B
:1008E0008091030280930402FF91EF91DF91CF91F9
:1008F000BF91AF919F918F917F916F915F914F9138
:100900003F912F911F910F900FBE0F901F90189540
:10091000EFEFF0E0E11BF109EE0FFF1FEC57FF4F87
:1009200085919491A0E0B0E080930F019093100125
:10093000A0931101B093120180910F0190911001C9
:10094000A0911101B09112010E948D0D83508093EE
:100950001A021092030290E0BDCFE12FF0E0EC57B5
:10096000FD4FE4912E2F30E0A0E9BEE20E949F0DE2
:10097000BB27A92F982F872F20EE3EE240E050E0C2
:10098000281B390B4A0B5B0B60E074E284EF90E0AC
:100990000E94650D30938B0020938A0081E0809344
:1009A000030291E097CFFC01848190E087309105AC
:1009B00048F4FC01E55CFF4F0C94870D5B985C9A52
:1009C0005D9A5E9A08955B985C985D9A5E9808952A
:1009D0005B985C985D985E9A08955B9A5C985D98C8
:1009E0005E9A08955B985C9A5D985E9A08955B9A0A
:1009F0005C9A5D985E9A08955B9A5C985D9A5E98A1
:100A000008951F920F920FB60F9211242F933F93C8
:100A10004F935F936F937F938F939F93AF93BF9306
:100A2000EF93FF93809102028F5F809302028823ED
:100A3000B1F0189914C010920202199921C0E091E6
:100A40002D02F0E0EE0FFF1FE657FE4F80819181EF
:100A5000DC01ED91FC910480F581E02D0995FF9179
:100A6000EF91BF91AF919F918F917F916F915F9126
:100A70004F913F912F910F900FBE0F901F9018959F
:100A8000E0912D02F0E0EE0FFF1FE657FE4F808150
:100A90009181DC01ED91FC910680F781E02D0995B3
:100AA000DECFE2EFF1E08081918101969183808336
:100AB000DC01AA0FBB1FAE50BE4F8BE092E0119637
:100AC0009C938E9380819181019691838083FC0118
:100AD000EE0FFF1FEE50FE4F87E092E09183808380
:100AE000089588E491E090930C0280930B02109299
:100AF00013021092120280EB97E0909315028093FC
:100B000014028DEF96E090931702809316028AE408
:100B100097E090931902809318028EE591E09093EC
:100B20000602809305028CE691E090930802809380
:100B300007021092090210920A02F999FECF8CE086
:100B400090E00E94040F8093090285E092E00C94EB
:100B5000D3040C94AC0302970C942F0308950895CA
:100B6000089560932B02089560932C02089560937A
:100B70002902089583E292E00C949E086091290274
:100B800070E083E292E00C94BE086091290270E06C
:100B900083E292E00E94D90A682F809129020C9486
:100BA0007F020F931F9380912C02982F9F7141E039
:100BB00050E002C0440F551F9A95E2F7662757FD93
:100BC0006095762FE82FF0E0F695E795F295E2959F
:100BD000EF70EF27FF70EF27EE0FFF1FEE0FFF1FE5
:100BE000E55EFD4F00811181228133814023512335
:100BF0006223732391E0452B462B472B09F490E0A9
:100C0000692F1F910F910C9477020F931F9380917E
:100C10002B02982F9F7141E050E002C0440F551FF6
:100C20009A95E2F7662757FD6095762FE82FF0E05A
:100C3000F695E795F295E295EF70EF27FF70EF27B5
:100C4000EE0FFF1FEE0FFF1FE15EFD4F00811181D0
:100C500022813381402351236223732391E0452B6A
:100C6000462B472B09F090E0692F1F910F910C94B0
:100C70006F028FEF9FEFDC0180931F0290932002A1
:100C8000A0932102B0932202F999FECF44E050E0F4
:100C900068E070E08FE192E00C940C0F10921B0260
:100CA00010921C0210921D0210921E02F999FECFA2
:100CB00044E050E064E070E08BE192E00C940C0FB3
:100CC00080912B02E82FF0E0F695E795F295E295FA
:100CD000EF70EF27FF70EF27EE0FFF1FEE0FFF1FE4
:100CE000E15EFD4F282F2F7181E090E002C0880F58
:100CF000991F2A95E2F7AA2797FDA095BA2F408160
:100D000051816281738184279527A627B727808325
:100D10009183A283B383F999FECF44E050E068E069
:100D200070E08FE192E00C942E0F80912C02E82F5E
:100D3000F0E0F695E795F295E295EF70EF27FF70FA
:100D4000EF27EE0FFF1FEE0FFF1FE55EFD4F282F71
:100D50002F7181E090E002C0880F991F2A95E2F779
:100D6000AA2797FDA095BA2F408151816281738196
:100D700084279527A627B72780839183A283B383EF
:100D8000F999FECF44E050E064E070E08BE192E03E
:100D90000C942E0FCF9340911F025091200260912E
:100DA0002102709122025F706627772791E04F3F02
:100DB0005F4061057105D9F081E040911B025091BF
:100DC0001C0260911D0270911E02452B462B472B81
:100DD00009F480E0C92FC82B83E292E00E94050B42
:100DE0006C2F682B80912A02CF910C94680290E0BE
:100DF000E3CF0E943D020C94510580912D0290E0BA
:100E000001968370992780932D02FC01EE0FFF1F3E
:100E1000E653FE4F80819181DC01ED91FC910480CD
:100E2000F581E02D099480932A02E0912D02F0E0F3
:100E3000EE0FFF1FE653FE4F80819181DC01ED91A3
:100E4000FC910480F581E02D0994E0912D02E111DF
:100E500001C00895F0E0EE0FFF1FE653FE4FA081A2
:100E6000B181ED91FC9111970190F081E02D682FF7
:100E7000CD010995E0912D02F0E0EE0FFF1FE65342
:100E8000FE4F80819181DC01ED91FC910480F58120
:100E9000E02D0994CF93DF93E0912D02EE2301F131
:100EA000F0E0EE0FFF1FE653FE4F80819181DC01E1
:100EB000ED91FC910680F781E02D0995E0912D02DE
:100EC000F0E0EE0FFF1FE653FE4F80819181DC01C1
:100ED000ED91FC910480F581E02DDF91CF91099493
:100EE000CAECD1E089919991DC01ED91FC910680E9
:100EF000F781E02D0995B1E0C23DDB0799F710922B
:100F00002D0240911F0250912002609121027091A8
:100F100022025F706627772791E04F3F5F406105AF
:100F20007105E1F081E040911B0250911C0260913B
:100F30001D0270911E02452B462B472B69F0C92FCD
:100F4000C82B83E292E00E94050B6C2F682B8091E6
:100F50002A020E946802B2CF80E0F1CF90E0E2CF97
:100F6000E0912D02F0E0EE0FFF1FE653FE4F80816F
:100F70009181DC01ED91FC910280F381E02D0995D6
:100F8000E0912D02F0E0EE0FFF1FE653FE4F80814F
:100F90009181DC01ED91FC910480F581E02D0994B3
:100FA000EF92FF920F931F93CF93DF93CDB7DEB7EE
:100FB00028970FB6F894DEBF0FBECDBF00911F0279
:100FC000109120020823192380911B0290911C028A
:100FD0000827192783E292E00E947C0B6D837E83B1
:100FE0008F83988783E292E00E94810B69837A83E2
:100FF0008B839C83EE24E394F12CBE016F5F7F4FC3
:10100000CE0105960E94690B882309F449C0CE01E0
:1010100005960E94270BDC01ED91FC91808187FDF4
:101020003AC09F012E5F3F4F0BC04E2F8F2F042FD2
:10103000182F2E5F3F4FF9013297808187FD2BC01B
:10104000A70102C0440F551F8A95E2F7CA01F901B2
:101050003197A701008002C0440F551F0A94E2F7A0
:10106000BA0160237123FA01E02BF12B40955095D2
:101070004023512308231923012B09F0AF01FA0162
:10108000E82BF92B8095909584239523672B69F69F
:10109000482F892FCCCFCE0105960E942F0BADCFC4
:1010A000C80128960FB6F894DEBF0FBECDBFDF9102
:1010B000CF911F910F91FF90EF900895109223020E
:1010C000109224021092250210922602F999FECF66
:1010D00044E050E060E070E083E292E00E94F40EB1
:1010E000F999FECF42E050E06DE070E087E292E0D7
:1010F0000E94F40E10921F02109220021092210200
:1011000010922202F999FECF44E050E068E070E0CE
:101110008FE192E00E94F40E10921B0210921C02CA
:1011200010921D0210921E02F999FECF44E050E089
:1011300064E070E08BE192E00C94F40ECF93DF93C7
:10114000EC01188219821A821B82F999FECF44E0C1
:1011500050E060E070E0CE010E940C0F80E190E072
:101160009D838C83F999FECF42E050E06DE070E002
:10117000CE010496DF91CF910C940C0FCF92DF92A9
:10118000EF92FF920F931F93CF93DF938C01EB01AC
:10119000FB01F695E795F295E295EF70EF27FF706A
:1011A000EF27EE0FFF1FEE0FFF1FE80FF91F8081E3
:1011B0009181A281B3819B012F71332741E050E0DF
:1011C00002C0440F551F2A95E2F7662757FD609528
:1011D000762F6A017B01C822D922EA22FB22CD2880
:1011E000CE28CF2871F5842B952BA62BB72B808387
:1011F0009183A283B383F999FECF44E050E060E08D
:1012000070E0C8010E940C0FF801848195818C1751
:101210009D07A8F0F801D583C483F999FECF42E079
:1012200050E06DE070E0C8010496DF91CF911F910E
:101230000F91FF90EF90DF90CF900C940C0FEC018A
:10124000E9CF4095509560957095482359236A23BE
:101250007B234083518362837383F999FECF44E0FB
:1012600050E060E070E0C8010E940C0FF80184813A
:101270009581C817D90749F0DF91CF911F910F9140
:10128000FF90EF90DF90CF9008959E01C031D1057F
:1012900008F089C12F5F3F4F408151816281738186
:1012A000E1E0F0E0CF01022E02C0880F991F0A94FE
:1012B000E2F7AA2797FDA095BA2F84239523A623AA
:1012C000B723892B8A2B8B2B09F06DC12031310577
:1012D00009F469C19E012E5F3F4FCF01022E02C06B
:1012E000880F991F0A94E2F7AA2797FDA095BA2FB5
:1012F00084239523A623B723892B8A2B8B2B09F0D4
:1013000052C12031310509F44EC12F5F3F4FCF014B
:10131000022E02C0880F991F0A94E2F7AA2797FDB0
:10132000A095BA2F84239523A623B723892B8A2B34
:101330008B2B09F038C12031310509F434C12F5FFE
:101340003F4FCF01022E02C0880F991F0A94E2F787
:10135000AA2797FDA095BA2F84239523A623B72308
:10136000892B8A2B8B2B09F01EC12031310509F402
:101370001AC12F5F3F4F81E090E06C01022E02C046
:10138000CC0CDD1C0A94E2F7EE24D7FCE094FE2C92
:10139000C422D522E622F722CD28CE28CF2809F074
:1013A00002C12031310509F4FEC02F5F3F4F6C01AF
:1013B000022E02C0CC0CDD1C0A94E2F7EE24D7FC0E
:1013C000E094FE2CC422D522E622F722CD28CE2896
:1013D000CF2809F0E8C02031310509F4E4C02F5FBF
:1013E0003F4F6C01022E02C0CC0CDD1C0A94E2F7C8
:1013F000EE24D7FCE094FE2CC422D522E622F7226C
:10140000CD28CE28CF2809F0CEC02031310509F4EF
:10141000CAC02F5F3F4F6C01022E02C0CC0CDD1CF6
:101420000A94E2F7EE24D7FCE094FE2CC422D522E5
:10143000E622F722CD28CE28CF2809F0B4C02031EB
:10144000310509F4B0C02F5F3F4F022E02C0880F54
:10145000991F0A94E2F7AA2797FDA095BA2F842333
:101460009523A623B723892B8A2B8B2B09F09BC0AE
:101470002031310509F497C02F5F3F4F81E090E0A4
:101480006C01022E02C0CC0CDD1C0A94E2F7EE24A3
:10149000D7FCE094FE2CC422D522E622F722CD28E8
:1014A000CE28CF2809F07FC02031310509F47BC058
:1014B0002F5F3F4F6C01022E02C0CC0CDD1C0A9442
:1014C000E2F7EE24D7FCE094FE2CC422D522E622DB
:1014D000F722CD28CE28CF2809F065C0203131056C
:1014E00009F461C02F5F3F4F6C01022E02C0CC0C8B
:1014F000DD1C0A94E2F7EE24D7FCE094FE2CC42213
:10150000D522E622F722CD28CE28CF2809F04BC0DD
:101510002031310509F447C02F5F3F4F6C01022E87
:1015200002C0CC0CDD1C0A94E2F7EE24D7FCE09458
:10153000FE2CC422D522E622F722CD28CE28CF28A1
:1015400091F52031310579F12F5F3F4F022E02C016
:10155000880F991F0A94E2F7AA2797FDA095BA2F42
:1015600084239523A623B723892B8A2B8B2BD9F48D
:1015700020313105C1F02F5F3F4F81E090E0022E16
:1015800002C0880F991F0A94E2F7AA2797FDA09539
:10159000BA2F84239523A623B723892B8A2B8B2B41
:1015A00011F420E130E0F80135832483F999FECF6E
:1015B00036CEFB019B012F71332741E050E002C082
:1015C000440F551F2A95E2F7662757FD6095762F41
:1015D000F695E795F295E295EF70EF27FF70EF270C
:1015E000EE0FFF1FEE0FFF1FE80FF91F80819181A3
:1015F000A281B381482359236A237B2381E0452BB1
:10160000462B472B09F480E00895CF93DF93FC012C
:101610009C012C5F3F4FE90140E050E0BA0102C05D
:101620002C5F3F4F80819181A281B381482B592B40
:101630006A2B7B2BF9012C173D0791F781E0452B95
:10164000462B472B09F480E0DF91CF910895FC01F0
:1016500082819381880F991F8E529E4F0895EF9239
:10166000FF920F931F93CF93DF93DC0112962D917E
:101670003C911397EE24E394F12C2031310510F5C1
:10168000F9013196EC01FB83EA83A7010E2E02C01B
:10169000440F551F0A94E2F7662757FD6095762F91
:1016A000A881B9810D911D912D913C914023512329
:1016B00062237323452B462B472B21F49F012031B6
:1016C0003105F0F2DF91CF911F910F91FF90EF90D4
:1016D0000895E1E0DC0112964D915C911397DB01D6
:1016E00012962D913C9113974217530711F08E2FAC
:1016F0000895E0E08E2F0895FC01BF01848195815B
:101700000895AC0160E170E0CB01BA010895109238
:101710006A0224E020936B028FEF80936C02809327
:101720006D0251E05093660293E0909367028093BC
:1017300068028093690232E03093620238E03093AD
:101740006302809364028093650290935E02E6E0F8
:10175000E0935F02809360028093610220935A02BB
:1017600065E060935B0280935C0280935D0220934E
:10177000560249E0409357028093580280935902E1
:1017800077E0709352024093530280935402809307
:10179000550230934E022AE020934F02809350026C
:1017A00080935102E0934A0220934B0280934C02B3
:1017B00080934D02909346029BE090934702809362
:1017C00048028093490270934202909343028093AF
:1017D00044028093450230933E0290933F028093EF
:1017E00040028093410240933A0290933B028093DF
:1017F0003C0280933D0220933602909337028093FF
:10180000380280933902609332023093330280931E
:1018100034028093350250932E0220932F0280933E
:1018200030028093310208951895539A549A559A2C
:10183000209821983A98569A0E942E0D80917C000B
:10184000806480937C0080917C00806280937C0027
:1018500080917C00887F80937C0080917A008760F3
:1018600080937A0080917A00806280937A008091E0
:101870007B00836080937B0080917A0080688093F6
:101880007A0080917A00886080937A0080917A0053
:10189000806480937A0084B5826084BD85B58D7F35
:1018A00085BD85B5856085BD8FE087BD80916E0063
:1018B000826080936E0080918100897F8093810097
:1018C0008091810081608093810085E395E0909311
:1018D0008B0080938A00809168008160809368000B
:1018E00080916B00816080936B00789447E06BE29D
:1018F00070E080E090E00E94CB0C0E94F906CCE002
:10190000412C90E1592E612C712C0E944E02809145
:101910001A029C2F981B892F0E94130762E085E210
:1019200090E00E94F90C0E94D00780900F019090E7
:101930001001A0901101B090120120910F0130917F
:1019400010014091110150911201DC010E94AE0D75
:101950006B017C018CE0F694E794D794C7948A9548
:10196000D1F7C301B201A50194010E94650DC29E89
:10197000C001C39E900DD29E900D112447E06BE2F2
:1019800070E00E94CB0CB29BFECF109285001092AB
:101990008400B29ABACFCF93DF931F92CDB7DEB750
:1019A000FB0149839F7390634081598121E030E0BE
:1019B000052E01C0220F0A94EAF7209524232083E4
:1019C0009EBD0DB407FEFDCF9EB58EBD0DB407FEC6
:1019D000FDCF8EB52081398181E090E0032E01C0DA
:1019E000880F0A94EAF7282B20830F90DF91CF917C
:1019F0000895CF93DF931F92CDB7DEB7FC016983C3
:101A00002081398181E090E0032E01C0880F0A9483
:101A1000EAF78095822380831EBC0DB407FEFDCFBC
:101A20004EB51EBC0DB407FEFDCF8EB59081598119
:101A300021E030E0052E01C0220F0A94EAF7922B34
:101A40009083242F2F71869590E030E8239F800D9E
:101A5000911D11240F90DF91CF91089584B1886278
:101A600084B9579A229A529A5F9A2A9A5A9A8CB5AE
:101A700080658CBD8CB58E7F8CBD8CB58D7F8CBD0B
:101A80008DB581608DBD08958EBD0DB407FEFDCF6F
:101A90009EB58EBD0DB407FEFDCF8EB55A985A9AED
:101AA000089597FB072E16F4009407D077FD09D010
:101AB0000E94B90D07FC05D03EF4909581959F4F8B
:101AC0000895709561957F4F0895A1E21A2EAA1B83
:101AD000BB1BFD010DC0AA1FBB1FEE1FFF1FA217DE
:101AE000B307E407F50720F0A21BB30BE40BF50BDB
:101AF000661F771F881F991F1A9469F76095709564
:101B0000809590959B01AC01BD01CF010895EE0F2A
:101B1000FF1F0590F491E02D0994AA27992329F439
:101B2000A85F982B11F480E10895903118F4AD5F0F
:101B30009295A395990FE8F78A2F99270895A29F68
:101B4000B001B39FC001A39F700D811D1124911D91
:101B5000B29F700D811D1124911D08950E949F0D4B
:101B6000A59F900DB49F900DA49F800D911D1124F1
:101B70000895AA1BBB1B51E107C0AA1FBB1FA617D4
:101B8000B70710F0A61BB70B881F991F5A95A9F726
:101B900080959095BC01CD010895CF93DF9382305D
:101BA000910510F482E090E0E0917002F0917102F2
:101BB00020E030E0A0E0B0E0309739F14081518181
:101BC00048175907B8F04817590771F48281938173
:101BD000109729F013969C938E9312972CC0909394
:101BE00071028093700227C02115310531F0421730
:101BF000530718F0A901DB0101C0EF019A01BD01F3
:101C0000DF010280F381E02DD7CF21153105F9F0F6
:101C1000281B390B2430310580F48A819B816115A2
:101C2000710521F0FB019383828304C090937102BC
:101C300080937002FE01329644C0FE01E20FF31F52
:101C40008193919322503109398328833AC020919E
:101C50006E0230916F02232B41F4209102013091EA
:101C6000030130936F0220936E02209100013091A6
:101C700001012115310541F42DB73EB74091040112
:101C800050910501241B350BE0916E02F0916F021B
:101C9000E217F307A0F42E1B3F0B2817390778F043
:101CA000AC014E5F5F4F2417350748F04E0F5F1FA2
:101CB00050936F0240936E028193919302C0E0E0D3
:101CC000F0E0CF01DF91CF910895CF93DF9300979C
:101CD00009F487C0FC01329713821282C09170020E
:101CE000D0917102209781F420813181280F391F12
:101CF00080916E0290916F028217930779F5F093AD
:101D00006F02E0936E026DC0DE0120E030E0AE179E
:101D1000BF0750F412964D915C9113979D014115A8
:101D2000510509F1DA01F3CFB383A28340815181D8
:101D3000840F951F8A179B0771F48D919C911197C1
:101D4000840F951F02969183808312968D919C91AA
:101D50001397938382832115310529F4F09371023F
:101D6000E09370023EC0D9011396FC93EE93129754
:101D70004D915D91A40FB51FEA17FB0779F480819F
:101D80009181840F951F0296D90111969C938E9391
:101D90008281938113969C938E931297E0E0F0E0FA
:101DA0008A819B81009719F0FE01EC01F9CFCE01E9
:101DB000029628813981820F931F20916E02309103
:101DC0006F022817390769F4309729F410927102CD
:101DD0001092700202C013821282D0936F02C093DD
:101DE0006E02DF91CF910895DC01CB01FC01F999DE
:101DF000FECF06C0F2BDE1BDF89A319600B40D9257
:101E000041505040B8F70895F999FECF92BD81BD79
:101E1000F89A992780B50895DC01A40FB51F4150A9
:101E2000504048F0CB01840F951F2E910E941D0F4A
:101E300041505040D0F70895262FF999FECF92BD1A
:101E400081BDF89A019700B4021639F01FBA20BD7F
:101E50000FB6F894FA9AF99A0FBE0895DC01CB01F7
:101E600003C02D910E94390F41505040D0F7089582
:101E7000262FF999FECF1FBA92BD81BD20BD0FB6A6
:101E8000F894FA9AF99A0FBE0196089513E0CEE8F5
:101E9000D3E004C0FE010E94890D2296C239D10709
:061EA000C9F7F894FFCF22
:101EA6000000720220008201007601007601000027
:101EB600100000C0F9A4B0999282F880908883C679
:101EC600FEFDFBF7EFDFF6EDDBB6A2A39DAB9CAA0A
:101ED60000000000FB010702F30100000000010200
:101EE6000E0215020000000039036203960200008C
:101EF60000001D033F03F301F301000000002F0360
:101F060054030104C9036903FEFF0000AB055F0328
:101F16007B030000000029034D039503A103000085
:101F26000000230346037E038A0305020C01090110
:101F36000601C201B601AA019E0100000000AE051D
:101F4600AF05CA06B00500000000B105600605062B
:101F5600390600000000B4059506D1054E060000BE
:101F66000000B705BE05C505BA059801960194019E
:101F760092016A02660262025E025A025602520228
:101F86004E024A02460242023E023A02360232023B
:021F96002E0219
:00000001FF
